:1000000045C0000061C000005FC000005DC000008E
:100010005BC0000059C0000057C0000055C0000080
:1000200053C0000051C000004FC0000069C4000070
:100030004BC0000049C0000047C0000045C00000A0
:1000400043C0000041C000003FC000003DC00000B0
:100050003BC0000039C0000037C0000035C00000C0
:1000600033C0000031C000002FC000002DC00000D0
:100070002BC0000029C0000027C0000025C00000E0
:1000800023C0000021C000001FC0000011241FBEBB
:10009000CFEFD0E4DEBFCDBF11E0A0E0B1E0E0EEF5
:1000A000F2E100E00BBF02C007900D92A633B1074A
:1000B000D9F721E0A6E3B1E001C01D92A136B20755
:1000C000E1F75AD00C946E099BCF883058F491E038
:1000D00001C0990F8A95EAF7892FAAE2B0E0EBE216
:1000E000F0E031C0803160F498EF980F81E001C0FA
:1000F000880F9A95EAF7A4E2B0E0E5E2F0E023C0C9
:10010000883160F490EF980F81E001C0880F9A95D4
:10011000EAF7A7E2B0E0E8E2F0E015C0803270F460
:100120002FE130E0281B310981E001C0880F2A95BA
:10013000EAF7A1E2B0E0E2E2F0E005C080E0A0E092
:10014000B0E0E0E0F0E06F3F19F49081982709C03B
:10015000662319F09081982B04C02081982F9095E8
:10016000922390839C91982B9C93089580910001F9
:100170008F5F809300010895A0E0B0E0E1ECF0E033
:1001800044C48BD1F3D2C0E0D0E000E010E08BE2B9
:10019000E82E81E0F82E91E2C92E91E0D92E25E1DA
:1001A000A22E21E0B22E39E0832E31E0932E8CE294
:1001B0009DD3782E85FF1CC00130110559F46DD1F7
:1001C0001F927F929F928F92C3D50F900F900F90A6
:1001D0000F904CC060E084E178DF5FD11F927F9286
:1001E000BF92AF92B5D50F900F900F900F9047C070
:1001F00082FF1FC0219769F450D11F927F92DF9236
:10020000CF92A6D50F900F900F900F90C0E0D0E046
:100210002BC061E081E059DF40D11F927F92FF92B5
:10022000EF9296D50F900F900F900F90C1E0D0E015
:100230001BC083FF19C0012B59F460E084E1CD2B72
:1002400079F443DF61E081E040DFC1E0D0E017C036
:10025000219719F161E081E038DFC1E0D0E006C00C
:1002600034DFC0E0D0E00BC0012B49F46FEF84E134
:100270002CDF84E690E08BD300E010E002C001E0C8
:1002800010E0209719F0C1E0D0E091CF6FEF81E04E
:100290001CDF84E690E07BD38ACFC0E0D0E0E6CFDD
:1002A00080E090E0089581E090E06F9364E06A95CB
:1002B000F1F76F910197C9F708950F931F93CF93AB
:1002C000DF9317B13D982898299AC0E0D0E0EBDF82
:1002D0002A9AE9DF06B12A98E6DF2A9AE4DF2A980B
:1002E000249605FF10C09E0140E050E080913A0145
:1002F00090913B01A0913C01B0913D012817390735
:100300004A075B0720F39E0140E050E080913A01EC
:1003100090913B01A0913C01B0913D012817390714
:100320004A075B0728F082E390E0A0E0B0E004C059
:1003300080E395E7A0E0B0E080933A0190933B0121
:10034000A0933C01B0933D0117B9DF91CF911F916C
:100350000F91089528B190E08F709070880F991FC9
:10036000880F991F237C282B28B92A9A9CDF2A986A
:100370009ACFA2E0B0E0EEEBF1E04FC3182F4A8332
:10038000698357D09ADFF7B008B1299869814A810B
:10039000662311F0289A01C0289887B18C6387B929
:1003A000413021F0812F82958F70D4DF812F8F70A3
:1003B000D1DFF7B808B92296E5E04BC360E042E030
:1003C000D8CF61E042E0D5CF60E041E0D2CF3D98A8
:1003D000459A80E395E7A0E0B0E080933A019093DE
:1003E0003B01A0933C01B0933D01209A219A229AAF
:1003F0008EE190E0CCD283E0E7DF86E090E0C7D2E8
:1004000083E0E2DF82E090E0C2D283E0DDDF82E0E1
:1004100090E0BDD282E0D8DF82E090E0B8D288E2FE
:10042000CDDF88E0CBDF81E0C9DF86E0C7DF8CE08D
:10043000C5CF80913E01882321F481E080933E0165
:10044000C6CF089581E0BADF8091360190913701DF
:10045000009711F1A0E0B0E208C0E0913601F09100
:100460003701E20FF31FB083AF5F2A2F30E0809196
:10047000010190E001976091020170E0869FA00168
:10048000879F500D969F500D1124241735072CF38C
:1004900010923901109238010895D4CF0895A5E043
:1004A000B0E0E4E5F2E0BBC2182F80E8898380EC7D
:1004B0008A8384E98B8384ED8C83FE01E60FF11D32
:1004C0008181810F6D837ADF109339016D81609393
:1004D00038012596E3E0BFC2A0E0B0E0E1E7F2E03A
:1004E00099C2D82E8091360190913701009709F476
:1004F000F2C02D2D2A3009F442C02830C9F4809171
:1005000039018150809339018F3F51F48091380136
:10051000815080933801809102018150809339018C
:10052000809138018F3F09F0D1C010923801CCC0C2
:100530008D2D47DF809138018823B9F090E0019735
:100540004091020150E0849F9001859F300D949F5F
:10055000300D112480913901E0913601F09137017D
:10056000E20FF31FE80FF11DD082809139018F5FF8
:100570008093390190910201891709F0ACC0409134
:100580003801242F30E08091010190E00197281775
:10059000390709F096C0C0E0D0E03FC080E06C2F82
:1005A0007EDFCC248E010F5F1F4F32C0EC2CFF2466
:1005B00030E0C29FC001C39F900DD29F900D1124C7
:1005C000E0913601F0913701EE0DFF1DE80FF91FA4
:1005D0008081F7DE809136019091370120910201F0
:1005E00030E0C29FF001C39FF00DD29FF00D1124A7
:1005F0008E0D9F1DE80FF91F029FD001039FB00DC4
:10060000129FB00D1124A80FB91F8C918083C39441
:1006100020910201C21650F2E80160910101862F7B
:1006200090E00297C817D9070CF4B8CF6230D0F128
:10063000625080E034DF00E010E230C0C02FD0E034
:100640008091010190E0029750E0849F9001859F86
:10065000300D949F300D1124E0913601F091370157
:10066000EC0FFD1FE20FF31F8081ABDE80910101D3
:1006700090E002974091020150E0849F9001859F95
:10068000300D949F300D1124E0913601F091370127
:10069000EC0FFD1FE20FF31F10830F5F409102016B
:1006A000041760F260910101615080E0F8DE10E013
:1006B00003C080E286DE1F5F809102011817C8F335
:1006C00003C04F5F40933801109239018091390186
:1006D00060913801E4DE2D2D332727FD3095C901C7
:1006E000CDB7DEB7E8E0B2C1809136019091370115
:1006F000009709F054D22091010130E021503040A0
:100700008091020190E0AC01249FC001259F900DD3
:10071000349F900D1124ABD1909337018093360113
:10072000009719F1A0E0B0E208C0E0913601F09125
:100730003701E20FF31FB083AF5F2A2F30E08091C3
:10074000010190E001976091020170E0869FA00195
:10075000879F500D969F500D1124241735072CF3B9
:100760008CE692E060E571E0A9C20895BDCF0895DE
:1007700087B1837D87B988B18C6288B985E090E0C4
:100780006F9364E06A95F1F76F910197C9F7089547
:1007900080913F01882321F481E080933F01E8CFDD
:1007A0000895BF92CF92DF92EF92FF920F931F9323
:1007B000B82EC6B0DC2CD09421D17B018C01E8DFAF
:1007C00080914B01813021F1813038F0823009F481
:1007D00045C0833009F081C063C02B2D30E04D2D22
:1007E00050E040955095242335232115310509F417
:1007F00074C0CB20C0924601E0924701F0924801BC
:100800000093490110934A0181E080934B0165C038
:100810008091470190914801A0914901B0914A010E
:10082000E81AF90A0A0B1B0B8FE0E816F104010520
:10083000110508F452C0409146018D2D90E080953D
:100840009095242F30E082239323009731F182E0AA
:1008500080934B01C422C09246013FC040914601A3
:100860008D2D842371F093E090934B01809346018A
:10087000E0924701F09248010093490110934A0128
:100880002CC050E08B2D90E02D2D30E02095309540
:10089000822393234817590701F110924B011DC081
:1008A0008091470190914801A0914901B0914A017E
:1008B000E81AF90A0A0B1B0B8FE0E816F104010590
:1008C000110558F0809146018D2119F010924B01CD
:1008D00005C092E090934B0101C080E01F910F9101
:1008E000FF90EF90DF90CF90BF9008955ACF08957A
:1008F0006F9364E06A95F1F76F910197C9F70895D6
:100900002F928F939F932FB680914D0190914E011E
:10091000019680934D0190934E0190E080914F019C
:10092000891F80934F01909155019C5F90935501D1
:100930008091540180519742C0F09093550180936B
:100940005401809150019091510101968093500182
:100950009093510190E080915201891F8093520140
:1009600080915301891F809353012FBE9F918F91D6
:100970002F901895CF93DF93EC0104C088EE93E09D
:10098000B7DF21972097D1F7DF91CF910895F2CF6C
:100990000895E0E7F0E080818E7F8083A0EBB0E0F7
:1009A0008C9183608C93A1EBB0E08C91807F8C93D1
:1009B0008C9182608C93B89A8081816080837894D6
:1009C000089580915601882321F481E08093560197
:1009D000E0CF0895F6DFE0E7F0E080818E7F80834E
:1009E0002091500130915101409152015091530199
:1009F000808181608083B901CA010895EBCF089599
:100A00002F923F924F925F926F927F928F929F921E
:100A1000AF92BF92CF92DF92EF92FF920F931F930C
:100A2000CF93DF93CDB7DEB7CA1BDB0B0FB6F894BD
:100A3000DEBF0FBECDBF09942A88398848885F84FD
:100A40006E847D848C849B84AA84B984C884DF806E
:100A5000EE80FD800C811B81AA81B981CE0FD11D52
:100A60000FB6F894DEBF0FBECDBFED010895CF9352
:100A7000DF938230910510F482E090E0E09159011B
:100A8000F0915A0120E030E0A0E0B0E0309739F179
:100A90004081518148175907B8F04817590771F438
:100AA00082819381109729F013969C938E931297CD
:100AB0002CC090935A018093590127C0211531050C
:100AC00031F04217530718F0A901DB0101C0EF0113
:100AD0009A01BD01DF010280F381E02DD7CF2115FE
:100AE0003105F9F0281B390B2430310580F48A8157
:100AF0009B816115710521F0FB019383828304C002
:100B000090935A0180935901FE01329644C0FE0130
:100B1000E20FF31F81939193225031093983288387
:100B20003AC02091570130915801232B41F4209174
:100B3000050130910601309358012093570120910F
:100B40000301309104012115310541F42DB73EB761
:100B50004091070150910801241B350BE09157018A
:100B6000F0915801E217F307A0F42E1B3F0B281752
:100B7000390778F0AC014E5F5F4F2417350748F016
:100B80004E0F5F1F509358014093570181939193EB
:100B900002C0E0E0F0E0CF01DF91CF910895CF9364
:100BA000DF93009709F487C0FC0132971382128209
:100BB000C0915901D0915A01209781F4208131814F
:100BC000280F391F80915701909158018217930780
:100BD00079F5F0935801E09357016DC0DE0120E0F4
:100BE00030E0AE17BF0750F412964D915C91139709
:100BF0009D014115510509F1DA01F3CFB383A283B9
:100C000040815181840F951F8A179B0771F48D9144
:100C10009C911197840F951F029691838083129661
:100C20008D919C911397938382832115310529F42B
:100C3000F0935A01E09359013EC0D9011396FC93F9
:100C4000EE9312974D915D91A40FB51FEA17FB0724
:100C500079F480819181840F951F0296D9011196B4
:100C60009C938E938281938113969C938E9312977B
:100C7000E0E0F0E08A819B81009719F0FE01EC0131
:100C8000F9CFCE01029628813981820F931F2091DE
:100C90005701309158012817390769F4309729F422
:100CA00010925A011092590102C013821282D093FD
:100CB0005801C0935701DF91CF9108950F931F936F
:100CC000CF93DF93EC018B01009731F4611571052F
:100CD00019F480E090E037C06EE070E081E090E0D1
:100CE00036D2FC010097A9F380E883830115110532
:100CF00071F01387028781E8838380915B01909173
:100D00005C01892B21F4F0935C01E0935B01209757
:100D1000C9F0D187C08783818260838380915D0120
:100D200090915E01892B71F4F0935E01E0935D0177
:100D300080915F0190916001892B21F4F093600113
:100D4000E0935F01CF01DF91CF911F910F91089543
:100D5000CF93DF93CDB7DEB7FE01359661917191E8
:100D6000AF0180915D0190915E0103D0DF91CF9141
:100D700008952F923F924F925F926F927F928F923F
:100D80009F92AF92BF92CF92DF92EF92FF920F931A
:100D90001F93CF93DF93CDB7DEB72C970FB6F894A0
:100DA000DEBF0FBECDBF7C016B018A01FC01178243
:100DB0001682838181FFB0C1CE0101964C01F701FB
:100DC0009381F60193FD859193FF81916F018823B3
:100DD00009F49EC1853239F493FD859193FF819189
:100DE0006F01853221F4B70190E0E8D1E8CF512CB2
:100DF000312C20E02032A0F48B3269F030F48032C4
:100E000059F0833269F420612CC08D3239F080337F
:100E100039F4216026C02260246023C0286021C0EC
:100E200027FD27C030ED380F3A3078F426FF06C092
:100E3000FAE05F9E300D1124532E13C08AE0389ED5
:100E4000300D1124332E20620CC08E3221F426FD89
:100E50005FC1206406C08C3611F4206802C0883659
:100E600041F4F60193FD859193FF81916F0181110A
:100E7000C1CF982F9F7D9554933028F40C5F1F4F5E
:100E8000FFE3F9830DC0833631F0833771F083358A
:100E900009F057C021C0F801808189830E5F1F4F80
:100EA00044244394512C540114C03801F2E06F0ED5
:100EB000711CF801A080B18026FF03C0652D70E091
:100EC00002C06FEF7FEFC5012C876DD12C0183012C
:100ED0002C852F77222E16C03801F2E06F0E711C80
:100EE000F801A080B18026FF03C0652D70E002C02C
:100EF0006FEF7FEFC5012C8744D12C012C85206832
:100F0000222E830123FC19C0832D90E04816590638
:100F1000A0F4B70180E290E051D13A94F5CFF50109
:100F200027FC859127FE81915F01B70190E046D1B2
:100F300031103A94F1E04F1A51084114510479F7F5
:100F4000DEC0843611F0893631F5F80127FF07C07D
:100F500060817181828193810C5F1F4F08C0608125
:100F60007181882777FD8095982F0E5F1F4F2F7610
:100F7000B22E97FF09C090958095709561957F4F2F
:100F80008F4F9F4F2068B22E2AE030E0A40148D155
:100F9000A82EA81843C0853729F42F7EB22E2AE048
:100FA00030E025C0F22FF97FBF2E8F36C1F018F444
:100FB000883579F0ADC0803719F0883721F0A8C0A6
:100FC0002F2F2061B22EB4FE0DC08B2D8460B82E61
:100FD00009C024FF0AC09F2F9660B92E06C028E0E2
:100FE00030E005C020E130E002C020E132E0F8014D
:100FF000B7FE07C060817181828193810C5F1F4FB2
:1010000006C06081718180E090E00E5F1F4FA401F7
:1010100007D1A82EA818FB2DFF77BF2EB6FE0BC058
:101020002B2D2E7FA51450F4B4FE0AC0B2FC08C0CC
:101030002B2D2E7E05C07A2C2B2D03C07A2C01C0BF
:10104000752C24FF0DC0FE01EA0DF11D8081803357
:1010500011F4297E09C022FF06C07394739404C062
:10106000822F867809F0739423FD12C020FF06C0FA
:101070005A2C731418F4530C5718732C731460F40F
:10108000B70180E290E02C8799D073942C85F6CF3D
:10109000731410F4371801C0312C24FF11C0B701AC
:1010A00080E390E02C878AD02C8522FF16C021FF98
:1010B00003C088E590E002C088E790E0B7010CC06B
:1010C000822F867851F021FD02C080E201C08BE2C0
:1010D00027FD8DE2B70190E071D0A51430F4B7017F
:1010E00080E390E06BD05A94F8CFAA94F401EA0D13
:1010F000F11D8081B70190E061D0A110F6CF3320BF
:1011000009F45DCEB70180E290E058D03A94F7CF71
:10111000F7018681978102C08FEF9FEF2C960FB663
:10112000F894DEBF0FBECDBFDF91CF911F910F911D
:10113000FF90EF90DF90CF90BF90AF909F908F90F7
:101140007F906F905F904F903F902F9008950F93F6
:101150001F93CF93DF93869F8001879F100D969FEB
:10116000100D1124C80183DCEC01009721F0A801C7
:1011700060E070E011D0CE01DF91CF911F910F910F
:101180000895FC010590615070400110D8F78095DA
:1011900090958E0F9F1F0895DC0101C06D93415003
:1011A0005040E0F70895FC0161507040019001103B
:1011B000D8F7809590958E0F9F1F08950F931F93DA
:1011C000CF93DF93182F092FEB018B8181FD03C093
:1011D0008FEF9FEF20C082FF10C04E815F812C8176
:1011E0003D81421753077CF4E881F9819F012F5F0D
:1011F0003F4F39832883108306C0E885F985812F06
:101200000995892B29F72E813F812F5F3F4F3F831F
:101210002E83812F902FDF91CF911F910F910895F1
:10122000FA01AA27283051F1203181F1E8946F9317
:101230006E7F6E5F7F4F8F4F9F4FAF4FB1E03ED0BD
:10124000B4E03CD0670F781F891F9A1FA11D680F5B
:10125000791F8A1F911DA11D6A0F711D811D911D8E
:10126000A11D20D009F468943F912AE0269F112403
:101270003019305D3193DEF6CF010895462F477067
:10128000405D4193B3E00FD0C9F7F6CF462F4F70C2
:10129000405D4A3318F0495D31FD4052419302D020
:1012A000A9F7EACFB4E0A6959795879577956795C6
:1012B000BA95C9F700976105710508959B01AC01C6
:1012C0000A2E06945795479537952795BA95C9F7ED
:1012D000620F731F841F951FA01D0895F894FFCF00
:1012E000010210000061012000477265656E302028
:1012F0003D20256400477265656E31203D202564E0
:101300000052656430203D20256400526564312020
:061310003D2025640000F1
:00000001FF
