:1000000045C0000061C000005FC000005DC000008E
:100010005BC0000059C0000057C0000055C0000080
:1000200053C0000051C000004FC000000C945D0997
:100030004BC0000049C0000047C0000045C00000A0
:1000400043C0000041C000003FC000003DC00000B0
:10005000E8C600000C94050937C0000035C0000058
:1000600033C0000031C000002FC000002DC00000D0
:1000700002C700000C942D0927C0000025C0000015
:1000800023C0000021C000001FC0000011241FBEBB
:10009000CFEFD0E4DEBFCDBF11E0A0E0B1E0ECEFE8
:1000A000FDE100E00BBF02C007900D92A23BB1073B
:1000B000D9F722E0A2EBB1E001C01D92A732B2074E
:1000C000E1F7A6D00C94FC0E9BCF809100018F5FCE
:1000D00080930001089582B1807890E0089582B104
:1000E000807190E0089582E0A6D4811103C00E943F
:1000F000CF08F9CF08958091050190910601A09154
:100100000701B0910801883B2BE09207A105B105DA
:10011000D0F48C599F4FAF4FBF4F893B2BE09207D4
:10012000A105B10520F088EB9BE0A0E0B0E0809352
:10013000050190930601A0930701B093080129D20D
:1001400087E391E03BC208958091050190910601FB
:10015000A0910701B091080185369105A105B1056F
:10016000C8F084569109A109B10984369105A10509
:10017000B10520F484E690E0A0E0B0E080930501B2
:1001800090930601A0930701B093080102D28BE47B
:1001900091E014C20895CF93C82FFBD18CE591E074
:1001A0000DD28C2F8BD161E080E027D2CB3221F0B1
:1001B000CD3221F4C9DF13C09EDF11C094DF80E28D
:1001C0008C278093FD0141E06DEF71E082E00E9499
:1001D000030981E691E0F2D18091FD016FD1CF91C9
:1001E000089582E018D4E091B2018E1781F0F0E01A
:1001F000E352FE4F8081CFDF8091B2018F3119F43D
:100200001092B201EECF8F5F8093B201EACF0895D2
:10021000A0E0B0E0EEE0F1E00C94840A3AD381B1C2
:10022000806981B940E855E260E070E082E009D77A
:1002300040E26DED71E082E0F2D5C0E0D0E000E098
:1002400010E08CE9E82E81E0F82E98EAC92E91E0C2
:10025000D92E8CE2DED3782E0E94DB094B015C01A3
:100260009ED7BFDF75FE15C060E080E0012B49F42A
:10027000C4D18FD186E691E0A1D1179801E010E0BA
:100280001EC0BBD186D184E791E098D100E010E098
:1002900016C072FE14C060E080E0CD2B49F4ADD1F1
:1002A00078D181E891E08AD11498C1E0D0E007C00C
:1002B000A4D16FD18FE891E081D1C0E0D0E060E0BF
:1002C00080E09BD1BF92AF929F928F92FF92EF926C
:1002D0000E94360C61E080E090D1809104018F9300
:1002E000809103018F93809102018F93809101018E
:1002F0008F93DF92CF920E94360C8DB79EB70C96EB
:100300000FB6F8949EBF0FBE8DBF809101019091F2
:100310000201A0910301B091040188159905AA0575
:10032000BB0508F096CF35D1809101019091020173
:10033000A0910301B0910401409105015091060183
:100340006091070170910801840F951FA61FB71FC8
:100350008093010190930201A0930301B0930401E3
:100360000115110541F482B18078803811F4179895
:1003700002C0179B179A209719F0C1E0D0E069CF0F
:10038000149B02C0149865CF149963CF149A61CF5F
:1003900080E090E0089581E090E06F9364E06A95DA
:1003A000F1F76F910197C9F708950F931F93CF93BA
:1003B000DF9317B13D982898299AC0E0D0E0EBDF91
:1003C0002A9AE9DF06B12A98E6DF2A9AE4DF2A981A
:1003D000249605FF10C09E0140E050E08091B701D7
:1003E0009091B801A091B901B091BA0128173907CD
:1003F0004A075B0720F39E0140E050E08091B7017F
:100400009091B801A091B901B091BA0128173907AC
:100410004A075B0728F082E390E0A0E0B0E004C068
:1004200080E395E7A0E0B0E08093B7019093B80136
:10043000A093B901B093BA0117B9DF91CF911F9181
:100440000F91089528B190E08F709070880F991FD8
:10045000880F991F237C282B28B92A9A9CDF2A9879
:100460009ACFA2E0B0E0E7E3F2E00C948C0A182FF8
:100470004A8369835AD099DFF7B008B12998698116
:100480004A81662311F0289A01C0289887B18C63AD
:1004900087B9413021F0812F82958F70D3DF812F72
:1004A0008F70D0DFF7B808B92296E5E00C94A80A5F
:1004B00060E042E0D6CF61E042E0D3CFFCCF0895C8
:1004C00060E041E0CECF3D98459A80E395E7A0E01B
:1004D000B0E08093B7019093B801A093B901B093B5
:1004E000BA01209A219A229A8EE190E02DD783E0DA
:1004F000E7DF86E090E028D783E0E2DF82E090E06B
:1005000023D783E0DDDF82E090E01ED782E0D8DFF2
:1005100082E090E019D788E2CBDF88E0C9DF81E094
:10052000C7DF86E0C5DF8CE0C3CF8091BB018823A5
:1005300021F481E08093BB01C6CF089581E0B8DF4C
:100540008091B3019091B401009711F1A0E0B0E265
:1005500008C0E091B301F091B401E20FF31FB08342
:10056000AF5F2A2F30E08091090190E00197609100
:100570000A0170E0869FA001879F500D969F500D45
:100580001124241735072CF31092B6011092B501EF
:100590000895D4CF0895EF92FF92CF93DF93E82E82
:1005A000E7017E01F92EE70101C085DF89918823EB
:1005B000E1F7DF91CF91FF90EF900895ECCF089590
:1005C000A5E0B0E0E5EEF2E0A9C7182F80E8898346
:1005D00080EC8A8384E98B8384ED8C83FE01E60FB3
:1005E000F11D8181810F6D8363DF1093B6016D81F1
:1005F0006093B5012596E3E0ADC7E2CF0895A0E092
:10060000B0E0E4E0F3E085C7D82E8091B30190918B
:10061000B401009709F4F2C02D2D2A3009F442C02C
:100620002830C9F48091B60181508093B6018F3F84
:1006300051F48091B50181508093B50180910A01F8
:1006400081508093B6018091B5018F3F09F0D1C0F0
:100650001092B501CCC08D2D2EDF8091B50188237D
:10066000B9F090E0019740910A0150E0849F900119
:10067000859F300D949F300D11248091B601E0913B
:10068000B301F091B401E20FF31FE80FF11DD08226
:100690008091B6018F5F8093B60190910A0189170E
:1006A00009F0ACC04091B501242F30E080910901E0
:1006B00090E001972817390709F096C0C0E0D0E014
:1006C0003FC080E06C2F7CDFCC248E010F5F1F4F7A
:1006D00032C0EC2CFF2430E0C29FC001C39F900DBC
:1006E000D29F900D1124E091B301F091B401EE0D71
:1006F000FF1DE80FF91F8081DEDE8091B30190912C
:10070000B40120910A0130E0C29FF001C39FF00DB7
:10071000D29FF00D11248E0D9F1DE80FF91F029F2F
:10072000D001039FB00D129FB00D1124A80FB91F67
:100730008C918083C39420910A01C21650F2E80183
:1007400060910901862F90E00297C817D9070CF431
:10075000B8CF6230D0F1625080E032DF00E010E2CA
:1007600030C0C02FD0E08091090190E0029750E0A6
:10077000849F9001859F300D949F300D1124E0914E
:10078000B301F091B401EC0FFD1FE20FF31F808164
:1007900092DE8091090190E0029740910A0150E0B9
:1007A000849F9001859F300D949F300D1124E0911E
:1007B000B301F091B401EC0FFD1FE20FF31F1083A2
:1007C0000F5F40910A01041760F2609109016150C6
:1007D00080E0F6DE10E003C080E26DDE1F5F8091F6
:1007E0000A011817C8F303C04F5F4093B501109278
:1007F000B6018091B6016091B501E2DE2D2D33275F
:1008000027FD3095C901CDB7DEB7E8E09EC68091DF
:10081000B3019091B401009709F04FD720910901DD
:1008200030E02150304080910A0190E0AC01249FDB
:10083000C001259F900D349F900D1124A6D6909352
:10084000B4018093B301009719F1A0E0B0E208C0B1
:10085000E091B301F091B401E20FF31FB083AF5FF9
:100860002A2F30E08091090190E0019760910A0100
:1008700070E0869FA001879F500D969F500D112418
:10088000241735072CF38FEF92E068EC71E0A4C7D2
:100890000895BDCF089587B1837D87B988B18C62F3
:1008A00088B985E090E06F9364E06A95F1F76F9105
:1008B0000197C9F708958091BC01882321F481E054
:1008C0008093BC01E8CF0895BF92CF92DF92EF9260
:1008D000FF920F931F93B82EC6B0DC2CD0946BD52B
:1008E0007B018C01E8DF8091C801813021F18130EA
:1008F00038F0823009F445C0833009F081C063C00C
:100900002B2D30E04D2D50E040955095242335237C
:100910002115310509F474C0CB20C092C301E092C7
:10092000C401F092C5010093C6011093C70181E094
:100930008093C80165C08091C4019091C501A091C8
:10094000C601B091C701E81AF90A0A0B1B0B8FE028
:10095000E816F1040105110508F452C04091C301E5
:100960008D2D90E080959095242F30E08223932365
:10097000009731F182E08093C801C422C092C30184
:100980003FC04091C3018D2D842371F093E090937B
:10099000C8018093C301E092C401F092C5010093A5
:1009A000C6011093C7012CC050E08B2D90E02D2D77
:1009B00030E020953095822393234817590701F1A1
:1009C0001092C8011DC08091C4019091C501A091F1
:1009D000C601B091C701E81AF90A0A0B1B0B8FE098
:1009E000E816F1040105110558F08091C3018D212D
:1009F00019F01092C80105C092E09093C80101C09F
:100A000080E01F910F91FF90EF90DF90CF90BF900B
:100A100008955ACF0895282F30E0F901EE0FFF1FF7
:100A200043E0220F331F4A95E1F7E20FF31FE55F22
:100A3000FE4F82810895282F30E0F901EE0FFF1F4D
:100A400073E0220F331F7A95E1F7E20FF31FE55FA2
:100A5000FE4F4181282F30E0F901EE0FFF1F53E0D8
:100A6000220F331F5A95E1F7E20FF31FE55FFE4FA8
:100A700081E09381491380E00895282F30E0F90147
:100A8000EE0FFF1FB3E0220F331FBA95E1F7E20F1D
:100A9000F31FE55FFE4F408551854115510509F46F
:100AA00052C0282F30E0F901EE0FFF1F73E0220F34
:100AB000331F7A95E1F7E20FF31FE55FFE4F728176
:100AC000282F30E0F901EE0FFF1FB3E0220F331F94
:100AD000BA95E1F7E20FF31FE55FFE4F94817917B6
:100AE00090F5282F30E0F901EE0FFF1F73E0220F81
:100AF000331F7A95E1F7E20FF31FE55FFE4F928116
:100B0000490F511DFA016083282F30E0F901EE0FE3
:100B1000FF1F53E0220F331F5A95E1F7E20FF31F37
:100B2000E55FFE4F92819F5F282F30E0F901EE0FC5
:100B3000FF1FB3E0220F331FBA95E1F7E20FF31F57
:100B4000E55FFE4F9283282F30E0F901EE0FFF1F83
:100B500073E0220F331F7A95E1F7E20FF31FE55F91
:100B6000FE4F4281282F30E0F901EE0FFF1F53E0C6
:100B7000220F331F5A95E1F7E20FF31FE55FFE4F97
:100B80009481491701F5282F30E0F901EE0FFF1F7E
:100B900093E0220F331F9A95E1F7E20FF31FE55F11
:100BA000FE4F9581992379F0282F30E0F901EE0F5F
:100BB000FF1FB3E0220F331FBA95E1F7E20FF31FD7
:100BC000E55FFE4F128208950F931F93182F823016
:100BD00009F474C0882319F4E1ECF0E002C0E9ECF8
:100BE000F0E080818F778083812F90E0FC01EE0F11
:100BF000FF1F03E0880F991F0A95E1F7E80FF91F1F
:100C0000E55FFE4F808591850097A1F1212F30E0AF
:100C1000F901EE0FFF1FA3E0220F331FAA95E1F7A2
:100C2000E20FF31FE55FFE4F9281212F30E0F901C3
:100C3000EE0FFF1F63E0220F331F6A95E1F7E20F0B
:100C4000F31FE55FFE4F84819817A0F4112319F478
:100C5000E0ECF0E002C0E8ECF0E0808187FF0AC041
:100C6000112319F4E6ECF0E002C0EEECF0E0608154
:100C7000812F03DF212F30E0F901EE0FFF1F43E04A
:100C8000220F331F4A95E1F7E20FF31FE55FFE4F96
:100C90008081882309F057C0112319F4E1ECF0E0BA
:100CA00002C0E9ECF0E08081806880834CC08091D4
:100CB0002401882319F01092210145C08091270159
:100CC00090912801009709F43EC0909121018091F4
:100CD00023019817C0F58091C901882399F470D336
:100CE0008093C90110E00AC068D3E02FF0E031978B
:100CF000E11BF109E653FE4F80831F5F0091C9019C
:100D0000101790F3A091C901AA23E9F08091210165
:100D1000E0912701F0912801E80FF11DA150A09367
:100D2000C901B0E0A653BE4F8C9180838091210110
:100D30008F5F809321019091210180912301981769
:100D400009F0BCCFB4CF1F910F910895823051F0BC
:100D5000882319F4E1ECF0E002C0E9ECF0E09081C6
:100D60009F779083A82FB0E0FD01EE0FFF1F53E0A7
:100D7000AA0FBB1F5A95E1F7EA0FFB1FE55FFE4F75
:100D800071876087682F70E0FB01EE0FFF1F93E013
:100D9000660F771F9A95E1F7E60FF71FE55FFE4FA5
:100DA0001282682F70E0FB01EE0FFF1FA3E0660FB9
:100DB000771FAA95E1F7E60FF71FE55FFE4F448323
:100DC000482F50E0FA01EE0FFF1F63E0440F551F5C
:100DD0006A95E1F7E40FF51FE55FFE4F258382304A
:100DE000D9F0282F30E0F901EE0FFF1F43E0220F6A
:100DF000331F4A95E1F7E20FF31FE55FFE4F908145
:100E0000992351F4882319F4E1ECF0E002C0E9ECF5
:100E1000F0E0808180688083089521E097CFFDCF46
:100E200008951F920F920FB60F920BB60F921124D6
:100E30002F933F934F935F936F937F938F939F93E2
:100E4000AF93BF93EF93FF936091C60080E015DEF0
:100E5000FF91EF91BF91AF919F918F917F916F9192
:100E60005F914F913F912F910F900BBE0F900FBE4E
:100E70000F901F9018951F920F920FB60F920BB6FE
:100E80000F9211242F933F934F935F936F937F9310
:100E90008F939F93AF93BF93EF93FF936091CE0097
:100EA00081E0EBDDFF91EF91BF91AF919F918F9129
:100EB0007F916F915F914F913F912F910F900BBE5A
:100EC0000F900FBE0F901F901895882319F4E1EC36
:100ED000F0E002C0E9ECF0E0808180628083089558
:100EE000882319F4E1ECF0E002C0E9ECF0E0808145
:100EF0008F7D80830895282F30E0F901EE0FFF1FCA
:100F000093E0220F331F9A95E1F7E20FF31FE55F9D
:100F1000FE4F268137812115310591F1282F30E0D0
:100F2000F901EE0FFF1FA3E0220F331FAA95E1F78F
:100F3000E20FF31FE55FFE4F4181282F30E0F901FA
:100F4000EE0FFF1F63E0220F331F6A95E1F7E20FF8
:100F5000F31FE55FFE4F9381491790F4282F30E08F
:100F6000F901EE0FFF1F43E0220F331F4A95E1F70F
:100F7000E20FF31FE55FFE4F9081992309F4A5CF9F
:100F8000AFCF823029F1282F30E0F901EE0FFF1F9B
:100F900053E0220F331F5A95E1F7E20FF31FE55F8D
:100FA000FE4F9081992349F4882319F4E1ECF0E095
:100FB00002C0E9ECF0E098E908C0882319F4E1ECFC
:100FC000F0E002C0E9ECF0E098E1908394DF7894DF
:100FD0000895882319F0813029F402C080E0D1CF30
:100FE00081E0CFCF0895A0E0B0E0E8EFF7E092C253
:100FF000D82E7A018B01EDDF8D2D8230F1F0DD20CE
:1010000019F4C4ECD0E002C0CCECD0E0C801B701C8
:1010100028EF3FEF4FEF5FEF37D26050734D8E4CAC
:101020009E4FA8019701E4E0220F331F441F551F74
:10103000EA95D1F738D239832883CDB7DEB7E7E018
:1010400085C2D1CF0895282F30E0F901EE0FFF1FA0
:1010500073E0220F331F7A95E1F7E20FF31FE55F8C
:10106000FE4F468157814115510509F465C0282F6F
:1010700030E0F901EE0FFF1F93E0220F331F9A9526
:10108000E1F7E20FF31FE55FFE4F6181282F30E0AB
:10109000F901EE0FFF1FA3E0220F331FAA95E1F71E
:1010A000E20FF31FE55FFE4F9381691708F044C01C
:1010B000882319F4E0ECF0E002C0E8ECF0E0908165
:1010C00095FF3AC0882319F4A6ECB0E002C0AEEC5C
:1010D000B0E0282F30E0F901EE0FFF1F63E0220F90
:1010E000331F6A95E1F7E20FF31FE55FFE4F918131
:1010F000490F511DFA0190819C93282F30E0F9018E
:10110000EE0FFF1F93E0220F331F9A95E1F7E20FD6
:10111000F31FE55FFE4F91819F5F282F30E0F901BB
:10112000EE0FFF1FA3E0220F331FAA95E1F7E20F96
:10113000F31FE55FFE4F9183DECE1F93182F8230A1
:1011400021F0CEDE812F7FDF1CC0809125019091A0
:1011500026010097B1F03091200120912201321731
:1011600080F406C0809120018F5F80932001EDCF35
:1011700020912001820F911DFC01808125D18823BF
:1011800089F71F91089580E0D8DF81E0D6DF82E003
:10119000D4DF80E019DD81E017DD82E015CDF3CFEB
:1011A0000895282F30E0F901EE0FFF1F93E0220F82
:1011B000331F9A95E1F7E20FF31FE55FFE4F778348
:1011C0006683282F30E0F901EE0FFF1FA3E0220F06
:1011D000331FAA95E1F7E20FF31FE55FFE4F11827F
:1011E000282F30E0F901EE0FFF1F63E0220F331FBD
:1011F0006A95E1F7E20FF31FE55FFE4F438382300C
:1012000009F079CE0895CDCF08951F920F920FB6B1
:101210000F920BB60F9211242F933F934F935F932E
:101220006F937F938F939F93AF93BF93EF93FF93AE
:1012300080E009DFFF91EF91BF91AF919F918F9176
:101240007F916F915F914F913F912F910F900BBEC6
:101250000F900FBE0F901F9018951F920F920FB610
:101260000F920BB60F9211242F933F934F935F93DE
:101270006F937F938F939F93AF93BF93EF93FF935E
:1012800081E0E1DEFF91EF91BF91AF919F918F914E
:101290007F916F915F914F913F912F910F900BBE76
:1012A0000F900FBE0F901F9018956F9364E06A9592
:1012B000F1F76F910197C9F708952F928F939F933C
:1012C0002FB68091D3019091D40101968093D301E0
:1012D0009093D40190E08091D501891F8093D5012E
:1012E0009091DB019C5F9093DB018091DA0180514A
:1012F0009742C0F09093DB018093DA018091D60190
:101300009091D70101968093D6019093D70190E0F8
:101310008091D801891F8093D8018091D901891FBC
:101320008093D9012FBE9F918F912F901895CF93C5
:10133000DF93EC0104C088EE93E0B7DF219720979C
:10134000D1F7DF91CF910895F2CF0895E0E7F0E073
:1013500080818E7F8083A0EBB0E08C9183608C9342
:10136000A1EBB0E08C91807F8C938C9182608C9308
:10137000B89A808181608083789408958091DC019F
:10138000882321F481E08093DC01E0CF0895F6DF2B
:10139000E0E7F0E080818E7F80832091D60130915C
:1013A000D7014091D8015091D9018081816080831B
:1013B000B901CA010895EBCF08958FEF64E041C0F1
:1013C00083E867E03ED0F9CF1F93182F982F9095B0
:1013D000991F9927991F85E8891B65E032D0812FD5
:1013E0008F7765E02ED01F9108956F9364E06A9522
:1013F000F1F76F910197C9F70895A1E0B0E0E2E03D
:10140000FAE08CC0182F249908C02C9906C02C9A99
:101410008EE190E06983E9DF698184B1806A84B9F3
:101420002698812F837080656C7A862B8CBD81E035
:1014300012FF80E08DBD81E090E079DF2196E3E04E
:1014400089C00F931F93082F162F0CB406FC03C0FE
:1014500080E064E0D2DF0CB404FC03C08CB5806192
:101460008CBD0EBD03C00CB404FE0AC00DB407FE53
:10147000FACF112319F0812F90E0B7DF8EB501C0AC
:1014800080E01F910F910895DB018F939F932DD0E2
:10149000BF91AF91A29F800D911DA39F900DB29F10
:1014A000900D11240895A1E21A2EAA1BBB1BFD0169
:1014B0000DC0AA1FBB1FEE1FFF1FA217B307E40733
:1014C000F50720F0A21BB30BE40BF50B661F771F8B
:1014D000881F991F1A9469F760957095809590956B
:1014E0009B01AC01BD01CF01089540D0A59F900D97
:1014F000B49F900DA49F800D911D112408952F92EB
:101500003F924F925F926F927F928F929F92AF9293
:10151000BF92CF92DF92EF92FF920F931F93CF93E0
:10152000DF93CDB7DEB7CA1BDB0B0FB6F894DEBF77
:101530000FBECDBF09942A88398848885F846E849D
:101540007D848C849B84AA84B984C884DF80EE80E7
:10155000FD800C811B81AA81B981CE0FD11D0FB6F0
:10156000F894DEBF0FBECDBFED010895A29FB0017C
:10157000B39FC001A39F700D811D1124911DB29FC7
:10158000700D811D1124911D0895CF93DF9382303A
:10159000910510F482E090E0E0911F02F0912002AA
:1015A00020E030E0A0E0B0E0309739F14081518197
:1015B00048175907B8F04817590771F48281938189
:1015C000109729F013969C938E9312972CC09093AA
:1015D000200280931F0227C02115310531F04217E8
:1015E000530718F0A901DB0101C0EF019A01BD0109
:1015F000DF010280F381E02DD7CF21153105F9F00D
:10160000281B390B2430310580F48A819B816115B8
:10161000710521F0FB019383828304C09093200223
:1016200080931F02FE01329644C0FE01E20FF31FB9
:101630008193919322503109398328833AC02091B4
:101640001D0230911E02232B41F420913301309171
:10165000340130931E0220931D02209131013091FC
:1016600032012115310541F42DB73EB740913501C6
:1016700050913601241B350BE0911D02F0911E02A2
:10168000E217F307A0F42E1B3F0B2817390778F059
:10169000AC014E5F5F4F2417350748F04E0F5F1FB8
:1016A00050931E0240931D028193919302C0E0E08B
:1016B000F0E0CF01DF91CF910895CF93DF930097B2
:1016C00009F487C0FC01329713821282C0911F0275
:1016D000D0912002209781F420813181280F391F79
:1016E00080911D0290911E028217930779F5F09365
:1016F0001E02E0931D026DC0DE0120E030E0AE1757
:10170000BF0750F412964D915C9113979D014115BE
:10171000510509F1DA01F3CFB383A28340815181EE
:10172000840F951F8A179B0771F48D919C911197D7
:10173000840F951F02969183808312968D919C91C0
:101740001397938382832115310529F4F0932002A6
:10175000E0931F023EC0D9011396FC93EE931297BB
:101760004D915D91A40FB51FEA17FB0779F48081B5
:101770009181840F951F0296D90111969C938E93A7
:101780008281938113969C938E931297E0E0F0E010
:101790008A819B81009719F0FE01EC01F9CFCE01FF
:1017A000029628813981820F931F20911D0230916A
:1017B0001E022817390769F4309729F41092200285
:1017C00010921F0202C013821282D0931E02C09395
:1017D0001D02DF91CF9108950F931F93CF93DF9355
:1017E000EC018B01009731F46115710519F480E06B
:1017F00090E037C06EE070E081E090E036D2FC010E
:101800000097A9F380E883830115110571F0138710
:10181000028781E883838091210290912202892BA3
:1018200021F4F0932202E09321022097C9F0D1879E
:10183000C0878381826083838091230290912402F8
:10184000892B71F4F0932402E09323028091250206
:1018500090912602892B21F4F0932602E093250231
:10186000CF01DF91CF911F910F910895CF93DF9317
:10187000CDB7DEB7FE01359661917191AF018091D0
:1018800023029091240203D0DF91CF9108952F92EB
:101890003F924F925F926F927F928F929F92AF9200
:1018A000BF92CF92DF92EF92FF920F931F93CF934D
:1018B000DF93CDB7DEB72C970FB6F894DEBF0FBE1F
:1018C000CDBF7C016B018A01FC01178216828381E6
:1018D00081FFB0C1CE0101964C01F7019381F60161
:1018E00093FD859193FF81916F01882309F49EC137
:1018F000853239F493FD859193FF81916F01853293
:1019000021F4B70190E0E8D1E8CF512C312C20E050
:101910002032A0F48B3269F030F4803259F08332F7
:1019200069F420612CC08D3239F0803339F42160A4
:1019300026C02260246023C0286021C027FD27C064
:1019400030ED380F3A3078F426FF06C0FAE05F9E9B
:10195000300D1124532E13C08AE0389E300D11240F
:10196000332E20620CC08E3221F426FD5FC120642C
:1019700006C08C3611F4206802C0883641F4F601A6
:1019800093FD859193FF81916F018111C1CF982FB4
:101990009F7D9554933028F40C5F1F4FFFE3F9832C
:1019A0000DC0833631F0833771F0833509F057C0AD
:1019B00021C0F801808189830E5F1F4F4424439426
:1019C000512C540114C03801F2E06F0E711CF80163
:1019D000A080B18026FF03C0652D70E002C06FEFCC
:1019E0007FEFC5012C876DD12C0183012C852F77CA
:1019F000222E16C03801F2E06F0E711CF801A08093
:101A0000B18026FF03C0652D70E002C06FEF7FEF4D
:101A1000C5012C8744D12C012C852068222E8301FE
:101A200023FC19C0832D90E048165906A0F4B70195
:101A300080E290E051D13A94F5CFF50127FC8591F1
:101A400027FE81915F01B70190E046D131103A94B1
:101A5000F1E04F1A51084114510479F7DEC0843681
:101A600011F0893631F5F80127FF07C060817181D7
:101A7000828193810C5F1F4F08C06081718188272C
:101A800077FD8095982F0E5F1F4F2F76B22E97FF10
:101A900009C090958095709561957F4F8F4F9F4FAE
:101AA0002068B22E2AE030E0A40148D1A82EA81860
:101AB00043C0853729F42F7EB22E2AE030E025C0BE
:101AC000F22FF97FBF2E8F36C1F018F4883579F0E8
:101AD000ADC0803719F0883721F0A8C02F2F2061C2
:101AE000B22EB4FE0DC08B2D8460B82E09C024FF29
:101AF0000AC09F2F9660B92E06C028E030E005C0CE
:101B000020E130E002C020E132E0F801B7FE07C07A
:101B100060817181828193810C5F1F4F06C060815B
:101B2000718180E090E00E5F1F4FA40107D1A82EC5
:101B3000A818FB2DFF77BF2EB6FE0BC02B2D2E7FD6
:101B4000A51450F4B4FE0AC0B2FC08C02B2D2E7EA2
:101B500005C07A2C2B2D03C07A2C01C0752C24FFD4
:101B60000DC0FE01EA0DF11D8081803311F4297E44
:101B700009C022FF06C07394739404C0822F867834
:101B800009F0739423FD12C020FF06C05A2C731471
:101B900018F4530C5718732C731460F4B70180E2D7
:101BA00090E02C8799D073942C85F6CF731410F4A1
:101BB000371801C0312C24FF11C0B70180E390E039
:101BC0002C878AD02C8522FF16C021FF03C088E510
:101BD00090E002C088E790E0B7010CC0822F8678C1
:101BE00051F021FD02C080E201C08BE227FD8DE2B1
:101BF000B70190E071D0A51430F4B70180E390E014
:101C00006BD05A94F8CFAA94F401EA0DF11D8081AB
:101C1000B70190E061D0A110F6CF332009F45DCE7A
:101C2000B70180E290E058D03A94F7CFF70186816F
:101C3000978102C08FEF9FEF2C960FB6F894DEBF0E
:101C40000FBECDBFDF91CF911F910F91FF90EF900D
:101C5000DF90CF90BF90AF909F908F907F906F90CC
:101C60005F904F903F902F9008950F931F93CF93C5
:101C7000DF93869F8001879F100D969F100D112482
:101C8000C80183DCEC01009721F0A80160E070E05E
:101C900011D0CE01DF91CF911F910F910895FC01DA
:101CA0000590615070400110D8F7809590958E0F87
:101CB0009F1F0895DC0101C06D9341505040E0F733
:101CC0000895FC016150704001900110D8F7809593
:101CD00090958E0F9F1F08950F931F93CF93DF93BF
:101CE000182F092FEB018B8181FD03C08FEF9FEF30
:101CF00020C082FF10C04E815F812C813D81421740
:101D000053077CF4E881F9819F012F5F3F4F3983AE
:101D10002883108306C0E885F985812F0995892BD2
:101D200029F72E813F812F5F3F4F3F832E83812FE5
:101D3000902FDF91CF911F910F910895FA01AA275B
:101D4000283051F1203181F1E8946F936E7F6E5FFE
:101D50007F4F8F4F9F4FAF4FB1E03ED0B4E03CD0AC
:101D6000670F781F891F9A1FA11D680F791F8A1F8F
:101D7000911DA11D6A0F711D811D911DA11D20D0F6
:101D800009F468943F912AE0269F11243019305DB0
:101D90003193DEF6CF010895462F4770405D4193A1
:101DA000B3E00FD0C9F7F6CF462F4F70405D4A33EE
:101DB00018F0495D31FD4052419302D0A9F7EACFB6
:101DC000B4E0A6959795879577956795BA95C9F7E5
:101DD00000976105710508959B01AC010A2E0694D8
:101DE0005795479537952795BA95C9F7620F731F91
:0C1DF000841F951FA01D0895F894FFCFDC
:101DFC0001E8030000E803000002100000000000EE
:101E0C0000000000000000000000000000000001C5
:101E1C00000000000000000000FFFFFFFFFFFFFFBD
:101E2C00FF000027022000536C6F77696E672062F9
:101E3C006C696E6B20737065656400496E637265C6
:101E4C006173696E6720626C696E6B0052583A2040
:101E5C000054583A2000546F70204C696768742005
:101E6C004F666600546F70204C69676874204F6E23
:101E7C0000426F74204C69676874204F666600429C
:101E8C006F74204C69676874204F6E0043757272D2
:101E9C00656E7420256C750054696D657220256C17
:021EAC007500BF
:00000001FF
